:100000000C9456000C9473000C9473000C947300C1
:100010000C9473000C9473000C9473000C94730094
:100020000C9473000C9473000C9473000C94730084
:100030000C9473000C9473000C9473000C94730074
:100040000C9473000C9473000C9473000C94730064
:100050000C9473000C9473000C9473000C94730054
:100060000C9473000C9473000C9473000C94730044
:100070000C9473000C9473000C9473000C94730034
:100080000C9473000C9473000C9473000C94730024
:100090000C9473000C9473000C9473000C94730014
:1000A0000C9473000C9473000C94730011241FBE05
:1000B000CFEFDAE0DEBFCDBF11E0A0E0B1E0ECE6CB
:1000C000F4E002C005900D92A03DB107D9F721E000
:1000D000A0EDB1E001C01D92AA3DB207E1F70E9478
:1000E000C4010C9434020C94000085E090E0089563
:1000F000CF92DF92EF92FF920F931F93CF93DF93F4
:10010000CBEBD1E0DC0101EB11E06B01AB01BC01F9
:10011000E990F990F7013081FB012191BF01209511
:100120002323F7012083F801E190F1908F01F7017B
:100130003081FA012191AF01232BF7012083F1E0F7
:10014000C53CDF0729F743E951E0CFE7D1E0059649
:100150002D9130E0FA0121933193AF01F601219105
:100160006F0130E029933993A817B90789F7DF9118
:10017000CF911F910F91FF90EF90DF90CF90089556
:10018000CF93DF93EBEBF1E0EC01A191B1913C91C6
:100190002991232B2C9321E0E53CF207B1F7EBE604
:1001A000F1E0DC012D91CD0130E021933193B1E0FC
:1001B000E537FB07B1F7DF91CF910895CF93DF9338
:1001C0009C012B5F3F4FFC011192E217F307E1F70F
:1001D00063E971E0C7EAD1E0AFE7B1E0FB0121914B
:1001E0003191BF0137FD0AC048815981FA01308140
:1001F0002323FC0120833C91232720832296019610
:100200001296F1E06D397F0749F7DF91CF9108959C
:10021000FB01BC016B5F7F4F20E030E0DC015D91B2
:10022000CD0141914523242B6A177B07B9F781E063
:10023000232B09F480E00895CF93DF93EBE6F1E000
:10024000A1EBB1E02081318137FD18C06D917C9127
:100250001197EB013881EC0148812423232BEB011A
:1002600028836D917C911197EB0138812081209535
:10027000EC014881242B2323EB012883329612962C
:100280000196D1E0E537FD07E9F6DF91CF910895BA
:10029000CF93DF93660F771FEC01C60FD71FE0EDFA
:1002A000F1E080E090E0A881B981A80FB91F30810A
:1002B0002C91232B2193019685309105A1F780ED98
:1002C00091E0DF91CF910C941C01CF93DF93660FE7
:1002D000771FEC01C60FD71FE0EDF1E020E030E022
:1002E000A881B981A20FB31F9C919095808198231A
:1002F00091932F5F3F4F2530310591F780ED91E0CD
:10030000DF91CF910C941C01CF93DF93660F771F81
:10031000EC01C60FD71FE0EDF1E080E090E0A8818E
:10032000B981A80FB91F30812C9123272193019601
:1003300085309105A1F780ED91E0DF91CF910C948C
:100340001C01EAE7F0E097E0908390819068908349
:10035000982F907290937B008F71ECE7F0E0808390
:100360008081806480838081806280830895809111
:100370007A00806480937A0080917A0086FDFCCFB9
:100380008091790090E00895CF93DF93CDB7DEB7E9
:100390002F970FB6F894DEBF0FBECDBF85E0E5EC1A
:1003A000F1E0DE011B9601900D928A95E1F780E263
:1003B0008E831F82188619861A86BE016A5F7F4F58
:1003C000CE010B960E94780085E0EAECF1E0DE01B8
:1003D000119601900D928A95E1F7CE0101960E9447
:1003E000C00000E010E0B8018EE191E00E944801F9
:1003F0002FEF31EE84E0215030408040E1F700C023
:1004000000000F5F1F4F0B30110569F700E010E08F
:10041000B8018EE191E00E9465019FEF21EE34E08A
:10042000915020403040E1F700C000000F5F1F4FA7
:100430000B30110569F71BE087E00E94A1010E94C3
:10044000B7019C01129FC001139F900D112497FFCB
:1004500002C081509F4F792F770F770B692F8EE164
:0C04600091E00E944801E8CFF894FFCF23
:10046C0020000000008000000000000000002000C0
:10047C0000000010000000000200000000016601F6
:10048C0061015C01570152014D01480143013E01DC
:10049C00390134010000000400008000000000401D
:1004AC0000000040000000001000000000000010E0
:1004BC000000000020000000000800000000040004
:1004CC000000000200000000010000FFFFFFFFFF22
:1004DC00FFFFFFFFFFFFFFFFFFFFFFFFFFFFFFFF20
:1004EC00FFFFFFFFFFFFFFFFFFFFFFFFFFFFFFFF10
:1004FC00FFFFFFFFFFFFFFFFFFFFFFFFFFFFFFFF00
:10050C00FFFFFFFFFFFFFF2300260029002C002F19
:10051C0000250028002B002E003100240027002A83
:10052C00002D003000A00000003350C07F040000FC
:00000001FF
